:100000000C942A000C9447000C9447000C94470071
:100010000C9447000C9447000C9447000C94470044
:100020000C9447000C9447000C9447000C94F70183
:100030000C9447000C9447000C9447000C94470024
:100040000C9447000C9447000C9447000C94470014
:100050000C94470011241FBECFE5D4E0DEBFCDBF16
:1000600010E0A0E6B0E0ECEEF4E002C005900D92E6
:10007000AE36B107D9F710E0AEE6B0E001C01D9290
:10008000A23EB107E1F70E9454020C9474020C9452
:10009000000083E397E00197F1F7A898A99880E31F
:1000A00085BBAA9AEFEFF3E23197F1F700C00000A9
:1000B000AA98E3E3F7E03197F1F7A898A99885BBF0
:1000C000AA9AEFEFF3E23197F1F700C00000AA9887
:1000D000E3E3F7E03197F1F7A898A99885BBAA9ACE
:1000E0008FEF93E20197F1F700C00000AA98E3E3D5
:1000F000F7E03197F1F7A898A99880E285BBAA9A12
:100100008FEF93E20197F1F700C00000AA980895DD
:1001100095B39F7095BB95B3282F207F922B95BBED
:10012000A898A998AA9AEFEFF3E23197F1F700C0E7
:100130000000AA9895B39F7095BB95B38295807F78
:10014000892B85BBA898A998AA9A8FEF93E201976B
:10015000F1F700C00000AA98089583E397E00197A3
:10016000F1F788E20E94880081E00E94880086E022
:100170000E9488008EE00E94880080E80E9488002B
:10018000089595B39F7095BB95B3282F207F922B30
:1001900095BBA89AA998AA9AEFEFF3E23197F1F7E5
:1001A00000C00000AA9895B39F7095BB95B3829547
:1001B000807F892B85BBA89AA998AA9A8FEF93E292
:1001C0000197F1F700C00000AA98089580E80E9406
:1001D00088000895CF93DF93EC018881882331F064
:1001E00021960E94C10089918823D9F7DF91CF9190
:1001F0000895823079F0833018F48130C9F405C055
:10020000833069F08430A1F40FC0862F81580E949A
:1002100088000895862F81540E9488000895862FB3
:100220008D560E9488000895862F8D520E94880066
:1002300008950F931F93CF93DF938A01E9018823D9
:1002400011F0662319F40E94E60002C00E94F90032
:10025000C530D10571F4C80160E177E20E94570210
:10026000CB01C09690937300809372000E94C100EE
:1002700003C0C430D105B9F4C80168EE73E00E9430
:100280005702CB0170937500609374006AE070E0D0
:100290000E945702C0969093E1008093E0000E9474
:1002A000C10081E001C080E0C330D10511F0813090
:1002B000B1F4C80164E670E00E945702CB0170936C
:1002C0007500609374006AE070E00E945702C09667
:1002D00090937900809378000E94C10081E0C23041
:1002E000D10511F08130B1F42AE030E0C801B90144
:1002F0000E945702CB017093750060937400B9019E
:100300000E945702C09690937700809376000E94D7
:10031000C10081E0C130D10511F0813061F4C80124
:100320006AE070E00E945702C0969093DF008093CD
:10033000DE000E94C100C630D1051CF085E40E9499
:10034000C100DF91CF911F910F91089587B38F6006
:1003500087BB88B3807F88BB81B3806381BB82B356
:10036000806382BB089584B3876F84BB85B3807834
:1003700085BB0895A39AAB9808950E94A6010E9498
:10038000BA010E94B30108951AB81BB886E880BD6F
:100390008FE289B910BC88E98AB9089598B3907F33
:1003A0008F70982B98BB089586E00E94CE01089527
:1003B00089E00E94CE01089585E00E94CE01089553
:1003C0008AE00E94CE01089580E00E94CE01089547
:1003D00083B3886085BB089583B3877F85BB089509
:1003E000F8940E94BD010E94C401789408951F9260
:1003F0000F920FB60F9211242F933F934F935F9359
:100400006F937F938F939F93AF93BF93CF93DF931C
:10041000EF93FF9380916E0090916F002CB1FC01DF
:10042000E658FF4F20832CB9019690936F0080937C
:100430006E008C30910529F5CAE7D0E0CE0160E668
:1004400070E00E946B028093700090937100CE0167
:100450000E94EA0010926F0010926E00809170006E
:1004600090917100009769F40E94D4018FEF9FE78B
:10047000A3E481509040A040E1F700C000000E943A
:10048000E401FF91EF91DF91CF91BF91AF919F91E7
:100490008F917F916F915F914F913F912F910F902D
:1004A0000FBE0F901F9018950E94F001FFCFAA1B5E
:1004B000BB1B51E107C0AA1FBB1FA617B70710F04F
:1004C000A61BB70B881F991F5A95A9F78095909581
:1004D000BC01CD010895FB01DC018D9101908019D3
:0C04E0000110D9F3990B0895F894FFCF98
:0E04EC00343130304133353245413541000066
:00000001FF
