:100000000C942A000C9447000C9447000C94470071
:100010000C9447000C9447000C9447000C94470044
:100020000C9447000C9447000C9447000C943E023B
:100030000C9447000C9447000C9447000C94470024
:100040000C9447000C9447000C9447000C94470014
:100050000C94470011241FBECFE5D4E0DEBFCDBF16
:1000600010E0A0E6B0E0E6ECF5E002C005900D92ED
:10007000A036B107D9F710E0A0E6B0E001C01D92AC
:10008000A237B107E1F70E94C6020C94E1020C947A
:10009000000083E397E00197F1F7A898A99880E31F
:1000A00085BBAA9AEFEFF3E23197F1F700C00000A9
:1000B000AA98E3E3F7E03197F1F7A898A99885BBF0
:1000C000AA9AEFEFF3E23197F1F700C00000AA9887
:1000D000E3E3F7E03197F1F7A898A99885BBAA9ACE
:1000E0008FEF93E20197F1F700C00000AA98E3E3D5
:1000F000F7E03197F1F7A898A99880E285BBAA9A12
:100100008FEF93E20197F1F700C00000AA980895DD
:1001100095B39F7095BB95B3282F207F922B95BBED
:10012000A898A998AA9AEFEFF3E23197F1F700C0E7
:100130000000AA9895B39F7095BB95B38295807F78
:10014000892B85BBA898A998AA9A8FEF93E201976B
:10015000F1F700C00000AA98089583E397E00197A3
:10016000F1F788E20E94880081E00E94880086E022
:100170000E9488008EE00E94880080E80E9488002B
:10018000089595B39F7095BB95B3282F207F922B30
:1001900095BBA89AA998AA9AEFEFF3E23197F1F7E5
:1001A00000C00000AA9895B39F7095BB95B3829547
:1001B000807F892B85BBA89AA998AA9A8FEF93E292
:1001C0000197F1F700C00000AA98089580E80E9406
:1001D00088000895CF93DF93EC018881882331F064
:1001E00021960E94C10089918823D9F7DF91CF9190
:1001F0000895823079F0833018F48130C9F405C055
:10020000833069F08430A1F40FC0862F81580E949A
:1002100088000895862F81540E9488000895862FB3
:100220008D560E9488000895862F8D520E94880066
:1002300008950F931F93CF93DF938A01E9018823D9
:1002400011F0662319F40E94E60002C00E94F90032
:10025000C530D10571F4C80160E177E20E94CD029A
:10026000CB01C09690936400809363000E94C1000C
:1002700003C0C430D105B9F4C80168EE73E00E9430
:10028000CD02CB0170936600609365006AE070E078
:100290000E94CD02C09690937100809370000E94DE
:1002A000C10081E001C080E0C330D10511F0813090
:1002B000B1F4C80164E670E00E94CD02CB017093F6
:1002C0006600609365006AE070E00E94CD02C0960F
:1002D00090936D0080936C000E94C10081E0C23059
:1002E000D10511F08130B1F42AE030E0C801B90144
:1002F0000E94CD02CB017093660060936500B90146
:100300000E94CD02C09690936B0080936A000E9479
:10031000C10081E0C130D10511F0813061F4C80124
:100320006AE070E00E94CD02C09690936F008093C7
:100330006E000E94C100C630D1051CF085E40E9409
:10034000C100DF91CF911F910F91089584B3876F02
:1003500084BB85B3807885BB08951ABA1BBA08950B
:1003600087B38F6087BB88B3807F88BB81B380638E
:1003700081BB82B3806382BB08951EBC8FEF8DBDAD
:1003800091E09CBD1BBC8ABD19BC88BD17BC86BD55
:1003900081EA8FBD8DE08EBD0895A39AAB98089534
:1003A0000E94B0010E94CD010E94A6010E94AD01F1
:1003B000089516B880E287B980E888B986E886B9DA
:1003C00008958770806287B9369A349BFECF85B1D5
:1003D000349A0895CF93DF93D82FC62F842F0E948D
:1003E000E101482F809367008D2F6C2F50E023E0B0
:1003F00030E00E941901DF91CF9108951AB81BB81F
:1004000086E880BD8FE289B910BC88E98AB9089571
:1004100098B3907F8F70982B98BB08951BBC8ABDB2
:1004200019BC68BD089586E00E940802089589E01D
:100430000E940802089585E00E94080208958AE05B
:100440000E940802089580E00E940802089583B384
:10045000886085BB08955D9BFECF8CB9089583B3FA
:10046000877F85BB0895F8940E94D0010E94BD014A
:100470000E94D9010E94FE01789408951F920F9264
:100480000FB60F9211242F933F934F935F936F9367
:100490007F938F939F93AF93BF93CF93EF93FF93EC
:1004A000CCB1C833B9F480E060E00E940E020E9433
:1004B000130282E061E040E050E023E030E00E947F
:1004C000190182E065E040E050E023E030E00E9466
:1004D000190132C0C233B9F48EE16EE10E940E02FE
:1004E0000E94130282E061E04EE150E023E030E040
:1004F0000E94190182E065E04EE150E023E030E027
:100500000E94190131C0C633B9F482E16EE10E9444
:100510000E020E94130282E061E042E150E023E01B
:1005200030E00E94190182E065E04EE150E023E0F6
:1005300030E00E94190118C0C433B1F48EE162E1C9
:100540000E940E020E94130282E061E04EE150E040
:1005500023E030E00E94190182E065E042E150E0D2
:1005600023E030E00E941901FF91EF91CF91BF91FC
:10057000AF919F918F917F916F915F914F913F913B
:100580002F910F900FBE0F901F9018950E9433026D
:100590000E9449000E94AD00FFCFAA1BBB1B51E186
:1005A00007C0AA1FBB1FA617B70710F0A61BB70BE3
:1005B000881F991F5A95A9F780959095BC01CD0188
:0605C0000895F894FFCF3E
:00000001FF
