:100000000C9472000C9493000C9493000C94930045
:100010000C9493000C9493000C9493000C94930014
:100020000C9493000C9493000C9493000C94930004
:100030000C9493000C9493000C9493000C949300F4
:100040000C9493000C9493000C9493000C949300E4
:100050000C9493000C9493000C9493000C949300D4
:100060000C9493000C9445020C9493000C94930010
:100070000C9493000C9493000C9493000C949300B4
:100080000C9493000C9493000C9493000C949300A4
:100090000C9493000C9493000C9493000C94930094
:1000A0000C9493000C9493000C9493000C94930084
:1000B0000C9493000C9493000C9493000C94930074
:1000C0000C9493000C9493000C9493000C94930064
:1000D0000C9493000C9493000C9493000C94930054
:1000E0000C94930011241FBECFEFD1E2DEBFCDBF31
:1000F00000E00CBF12E0A0E0B2E0E2EDF5E000E0CD
:100100000BBF02C007900D92A030B107D9F712E0E3
:10011000A0E0B2E001C01D92A337B107E1F70E9451
:10012000CC020C94E7020C94000086E69EE0019756
:10013000F1F700004098419880E388B9429AEFEFC8
:10014000F7E43197F1F700C000004298E6E6FEE0E0
:100150003197F1F700004098419888B9429AEFEF43
:10016000F7E43197F1F700C000004298E6E6FEE0C0
:100170003197F1F700004098419888B9429A8FEF83
:1001800097E40197F1F700C000004298E6E6FEE030
:100190003197F1F700004098419880E288B9429A7F
:1001A0008FEF97E40197F1F700C00000429808959F
:1001B00098B19F7098B998B1282F207F922B98B949
:1001C00040984198429AEFEFF7E43197F1F700C079
:1001D0000000429898B19F7098B998B18295807F3D
:1001E000892B88B940984198429A8FEF97E40197FC
:1001F000F1F700C00000429808950E94950086E63D
:100200009EE00197F1F7000088E20E94D80081E0AB
:100210000E94D80086E00E94D8008EE00E94D8009C
:1002200080E80E94D800089598B19F7098B998B15D
:10023000282F207F922B98B9409A4198429AEFEF4D
:10024000F7E43197F1F700C00000429898B19F7031
:1002500098B998B18295807F892B88B9409A419846
:10026000429A8FEF97E40197F1F700C0000042989F
:10027000089580E80E94D8000895CF93DF93EC01A1
:100280008881882331F021960E9414018991882366
:10029000D9F7DF91CF910895823079F0833018F447
:1002A0008130C9F405C0833069F08430A1F40FC0F7
:1002B000862F81580E94D8000895862F81540E946D
:1002C000D8000895862F8D560E94D8000895862F55
:1002D0008D520E94D80008950F931F93CF93DF9300
:1002E0008A01E901882311F0662319F40E9439017B
:1002F00002C00E944C01C530D10571F4C80160E113
:1003000077E20E94D302CB01C096909303028093C0
:1003100002020E94140103C0C430D105B9F4C8011F
:1003200068EE73E00E94D302CB01709305026093E4
:1003300004026AE070E00E94D302C09690937202B9
:10034000809371020E94140181E001C080E0C330FB
:10035000D10511F08130B1F4C80164E670E00E946B
:10036000D302CB0170930502609304026AE070E04F
:100370000E94D302C09690930A02809309020E94C1
:10038000140181E0C230D10511F08130B1F42AE0CE
:1003900030E0C801B9010E94D302CB01709305027D
:1003A00060930402B9010E94D302C09690930702A1
:1003B000809306020E94140181E0C130D10511F042
:1003C000813061F4C8016AE070E00E94D302C096F7
:1003D0009093700280936F020E941401C630D10581
:1003E0001CF085E40E941401DF91CF911F910F91C1
:1003F00008953B9A4398089587B1876F87B988B16C
:10040000807888B9089581B18F6081B982B1807F89
:1004100082B9EAE0F1E0808188618083EBE0F1E07D
:100420008081886180830895F8940E94FC010E9475
:1004300003020E94F9017894089586B1886088B912
:10044000089586B1877F88B90895E1ECF0E01082C5
:100450001092C00086E08093C2008FE58093C400B4
:100460001092C50088E980830895E0ECF0E0908167
:1004700095FFFDCF8093C6000895E0ECF0E0808109
:1004800085FFFDCF8091C60008951F920F920FB691
:100490000F920BB60F9211242F933F934F935F93BC
:1004A0006F937F938F939F93AF93BF93CF93DF937C
:1004B000EF93FF93C6ECD0E0888180930802E0912F
:1004C0000002F0910102E55FFD4F8083109201026E
:1004D0001092000281E061E00E944C0180910B02C9
:1004E0000E94140180910802888380910B02815040
:1004F0008336B0F50E941D028FEF9FE7A4E0815084
:100500009040A040E1F700C000000E9421028091CD
:100510000B02883311F486E082B980910B0282339A
:1005200011F489E082B980910B02843311F485E0E3
:1005300082B980910B02863311F48AE082B98091EE
:100540000B02853309F412B880910B02873311F442
:100550000E941D0280910B02893311F40E94210236
:10056000FF91EF91DF91CF91BF91AF919F918F91CB
:100570007F916F915F914F913F912F910F900BBEA3
:100580000F900FBE0F901F901895F8940E941402C0
:100590000E942502789408950E94C5020E94FD00E1
:1005A0000E949500FFCFAA1BBB1B51E107C0AA1FE9
:1005B000BB1FA617B70710F0A61BB70B881F991F04
:1005C0005A95A9F780959095BC01CD010895F894AE
:0205D000FFCF5B
:00000001FF
